:100000000C9428010C9459010C9459010C94590139
:100010000C9459010C9459010C9459010C945901F8
:100020000C9459010C9459010C9459010C945901E8
:100030000C9459010C9459010C9459010C945901D8
:100040000C9459010C9459010C9459010C945901C8
:100050000C9459010C9459010C9459010C94DE0430
:100060000C9459010C94A8040C947E040C9459012E
:100070000C9459010C9459010C9459010C94590198
:100080000C9459010C9459010C9459010C94590188
:100090000C9459010C9459010C9459010C94590178
:1000A0000C9459010C9459010C9459010C94590168
:1000B0000C9459010C9459010C9459010C94590158
:1000C0000C9459010C9459010C9459010C94590148
:1000D0000C9459010C9459010C9459010C94590138
:1000E0000C9459010C9414030C9428050C942A03C5
:1000F0000C947A010C941C030C9418030C94D801F2
:100100000C940A030C9430030C94B6010C94DE0298
:100110000C9426030C94E3020C9410020C94FD0240
:100120000C9434030C9422030C94A7010C945D02EC
:100130000C9401030C9404030C940E030C94F5022C
:100140000C94CA010C94F90200000A0B02090C0D70
:100150000E0807030401000000000000000000007A
:10016000000000000000000000000000000000008F
:10017000000000001211100000000000000000004C
:10018000000000000000000000000000000000006F
:100190002200250028002B002E003100340002012F
:1001A0000000050108010B010000210024002700C8
:1001B0002A002D0030003300010100000401070176
:1001C0000A010505050507050808080802020202DC
:1001D0000A0A0808040404040101010101010101E3
:1001E0000303030303030303040707070C0C0C0CAE
:1001F0000C0C0C0C02020202060606060606060697
:100200000B0B0B0B0B0B0B0B010210202008081023
:100210002040102040800201020108040201010276
:10022000040810204080804020100804020180044F
:1002300002018040201008040201080402010102AA
:100240000408102040800102040810204080280586
:1002500011241FBECFEFD1E2DEBFCDBF00E00CBF47
:1002600013E0A0E0B2E0E2E6FEE000E00BBF02C077
:1002700007900D92AC36B107D9F724E0ACE6B3E0B5
:1002800001C01D92AE31B207E1F711E0C8E2D1E042
:1002900000E006C021970109802FFE010E94270778
:1002A000C732D10780E00807A9F70E945A050C94CD
:1002B0002F070C94000090E0FC01E85FFD4F2491B3
:1002C0008E539E4FFC018491882399F090E0880F13
:1002D000991FFC01E855FE4FA591B491FC01E2572E
:1002E000FE4F859194918FB7F894EC91E22BEC93AB
:1002F0008FBF0895AF92BF92CF92DF92EF92FF929D
:100300000F931F93CF93DF936C017B018B01040F3D
:10031000151FEB015E01AE18BF08C017D10759F0D9
:100320006991D601ED91FC910190F081E02DC6011B
:100330001995892B79F7C501DF91CF911F910F9105
:10034000FF90EF90DF90CF90BF90AF900895FC01A9
:10035000538D448D252F30E0842F90E0821B930B2A
:10036000541710F0CF96089501970895FC01918DD0
:10037000828D981761F0A28DAE0FBF2FB11D5D96D3
:100380008C91928D9F5F9F73928F90E008958FEF75
:100390009FEF0895FC01918D828D981731F0828D29
:1003A000E80FF11D858D90E008958FEF9FEF089580
:1003B000FC01918D228D892F90E0805C9F4F821BE4
:1003C00091098F73992708958FE793E00E94D801D0
:1003D00021E0892B09F420E0822F0895FC01A48DEF
:1003E000A80FB92FB11DA35ABF4F2C91848D90E057
:1003F00001968F739927848FA689B7892C93A0893A
:10040000B1898C91837080648C93938D848D9813C3
:1004100006C00288F389E02D80818F7D8083089556
:10042000EF92FF920F931F93CF93DF93EC0181E044
:10043000888F9B8D8C8D98131AC0E889F9898081EB
:1004400085FF15C09FB7F894EE89FF896083E8891E
:10045000F98980818370806480839FBF81E090E010
:10046000DF91CF911F910F91FF90EF900895F62E9D
:100470000B8D10E00F5F1F4F0F731127E02E8C8D37
:100480008E110CC00FB607FCFACFE889F98980817C
:1004900085FFF5CFCE010E94EE01F1CFEB8DEC0F81
:1004A000FD2FF11DE35AFF4FF0829FB7F8940B8F99
:1004B000EA89FB8980818062CFCFCF93DF93EC0103
:1004C000888D8823B9F0AA89BB89E889F9898C913C
:1004D00085FD03C0808186FD0DC00FB607FCF7CFF8
:1004E0008C9185FFF2CF808185FFEDCFCE010E94F8
:1004F000EE01E9CFDF91CF91089580E090E0892B64
:1005000029F00E94E40181110E94000080E090E047
:10051000892B49F080E090E0892B29F00E940000AF
:1005200081110E94000080E090E0892B49F080E07A
:1005300090E0892B29F00E94000081110E940000A8
:1005400080E090E0892B49F080E090E0892B29F051
:100550000E94000081110C9400000895282F30E0C3
:10056000F901E85BFE4F9491F901E85FFD4F44917A
:100570002E533E4FF9012491222309F435C09923CB
:1005800011F191509231F8F4E92FF0E08827E4530B
:10059000FD4F8F4F0C942707FD020103DE02F50289
:1005A000F902E30204030A030E03140318031C03F5
:1005B00022032603E3022A033003340380918000E0
:1005C0008F7780938000E22FF0E0EE0FFF1FE2575D
:1005D000FE4FA591B4918FB7F894EC91611148C08A
:1005E00040954E234C938FBF0895809180008F7D5E
:1005F000E8CF80918000877FE4CF84B58F7784BD7A
:10060000E2CF84B58F7DFBCF8091B0008F77809350
:10061000B000D9CF8091B0008F7DF9CF809190004C
:100620008F7780939000CFCF809190008F7DF9CF0E
:1006300080919000877FF5CF8091A0008F77809385
:10064000A000C1CF8091A0008F7DF9CF8091A00044
:10065000877FF5CF809120018F7780932001B3CFE2
:10066000809120018F7DF9CF80912001877FF5CF88
:100670004E2BB8CF3FB7F8948091720390917303DB
:10068000A0917403B091750326B5A89B05C02F3FB8
:1006900019F00196A11DB11D3FBFBA2FA92F982FA8
:1006A0008827BC01CD01620F711D811D911D42E0A3
:1006B000660F771F881F991F4A95D1F708958F926B
:1006C0009F92AF92BF92CF92DF92EF92FF924B0137
:1006D0005C010E943A036B017C010E943A036C1991
:1006E0007D098E099F09683E734081059105A8F335
:1006F00021E0821A9108A108B10888EEC80E83E0B3
:10070000D81EE11CF11C81149104A104B10429F745
:10071000FF90EF90DF90CF90BF90AF909F908F9021
:1007200008958FB7F89480916C038FBF08958CBDA6
:100730009DBD0895FC0101900020E9F73197AF01BC
:10074000481B590BBC018FE793E00C947A018F9200
:100750009F92AF92BF920F931F93CF93DF93CDB72A
:10076000DEB7A1970FB6F894DEBF0FBECDBF19A2BA
:10077000423008F44AE08E010F5D1F4F842E912C09
:10078000B12CA12CA50194010E940507E62FB90107
:10079000CA01EA30F4F4E05DD801EE938D01232B19
:1007A000242B252B79F790E080E0109719F0CD01EC
:1007B0000E949A03A1960FB6F894DEBF0FBECDBF7C
:1007C000DF91CF911F910F91BF90AF909F908F902D
:1007D0000895E95CE1CF0C949A03CF93DF930E94D4
:1007E0009A03EC0186E192E00E949A038C0F9D1F10
:1007F000DF91CF910895682F70E090E080E042E0B3
:100800000C94A703CF93DF930E94FB03EC0186E1D6
:1008100092E00E949A038C0F9D1FDF91CF91089563
:1008200010927D0320E8829FC0011124856080938F
:100830007B03E0E020E130E0DB01CA01022E04C0CE
:10084000B695A795979587950A94D2F78170D901A7
:10085000509701C0880FAA95EAF7E82B2F5F3F4F0A
:100860002831310549F7E0937C0340937E0389E109
:1008700092E00E94EB038CE492E00E94EB038091F3
:100880007B030E94FB0385E592E00E94EB038091CD
:100890007C030E94FB0380E692E00E94EB038091C0
:1008A0007D030E94FB038BE692E00E94EB038091A4
:1008B0007E030E94020480911C0490911D040E94FA
:1008C000970360E08AE00E94AE02EBE7F3E08FE777
:1008D00093E021912EBD00000DB407FEFDCF2EB593
:1008E0008E179F07B1F761E08AE00C94AE02BC015D
:1008F000990F880B990B4AE00C94A7031F920F9253
:100900000FB60F9211240BB60F922F933F934F9374
:100910005F936F937F938F939F93AF93BF93EF9367
:10092000FF938FE793E00E94EE01FF91EF91BF915B
:10093000AF919F918F917F916F915F914F913F9177
:100940002F910F900BBE0F900FBE0F901F90189518
:100950001F920F920FB60F9211240BB60F922F9386
:100960008F939F93EF93FF93E0918F03F091900308
:100970008081E0919503F091960382FD1DC09081E6
:10098000809198038F5F8F7320919903821741F0B4
:10099000E0919803F0E0E158FC4F958F8093980325
:1009A000FF91EF919F918F912F910F900BBE0F9020
:1009B0000FBE0F901F9018958081F2CF1F920F925B
:1009C0000FB60F9211242F933F938F939F93AF9362
:1009D000BF9380916E0390916F03A0917003B091CB
:1009E000710330916D0323E0230F2D3758F50196E5
:1009F000A11DB11D20936D0380936E0390936F032F
:100A0000A0937003B093710380917203909173036C
:100A1000A0917403B09175030196A11DB11D80933F
:100A2000720390937303A0937403B0937503BF9103
:100A3000AF919F918F913F912F910F900FBE0F908B
:100A40001F90189526E8230F0296A11DB11DD2CF45
:100A5000EFE7F3E01382128288EE93E0A0E0B0E0CB
:100A600084839583A683B78388E092E09183808313
:100A700085EC90E09587848784EC90E09787868763
:100A800080EC90E0918B808B81EC90E0938B828B5B
:100A900082EC90E0958B848B86EC90E0978B868B34
:100AA000118E128E138E148EECE1F4E08DE58083AE
:100AB00011820895789484B5826084BD84B5816084
:100AC00084BD85B5826085BD85B5816085BD809119
:100AD0006E00816080936E00109281008091810091
:100AE0008260809381008091810081608093810089
:100AF000809180008160809380008091B10084604B
:100B00008093B1008091B00081608093B0008091AB
:100B10009100826080939100809191008160809328
:100B20009100809190008160809390008091A1005D
:100B300082608093A1008091A10081608093A100D8
:100B40008091A00081608093A0008091210182604B
:100B50008093210180912101816080932101809106
:100B6000200181608093200180917A0084608093CD
:100B70007A0080917A00826080937A0080917A0076
:100B8000816080937A0080917A00806880937A00F7
:100B90001092C1008AE00E945B0161E08AE00E943D
:100BA000AE0268EE73E080E090E00E945F03CFB792
:100BB000F89480917603811124C0E7EFF1E08491ED
:100BC000EDE3F2E09491E82FF0E0EE0FFF1FE8551F
:100BD000FE4FA591B491EC91E92321F461E085E306
:100BE0000E94AE0285E30E945B018CB580618CBDE2
:100BF0008CB580648CBD84E30E945B0183E30E941A
:100C00005B01809176038F5F80937603CFBFE09185
:100C10008F03F091900382E08083E0918B03F09149
:100C20008C031082E0918D03F0918E0380E180832C
:100C300010929703E0919303F091940386E08083F0
:100C4000E0919103F0919203808180618083E09133
:100C50009103F0919203808188608083E0919103F9
:100C6000F0919203808180688083E0919103F091FC
:100C7000920380818F7D808301E010E080910202E9
:100C8000909103020197C9F464EF71E080E090E075
:100C90000E945F0386E792E00E94ED034BE050E084
:100CA00060EE70E081E00E9410048AE892E00E9409
:100CB000ED03109203021092020264E670E080E0FD
:100CC00090E00E945F0380910002909101020197E1
:100CD00009F08AC064EF71E080E090E00E945F0359
:100CE00084E992E00E94ED0387EA92E00E94EB0320
:100CF00082EE92E00E94EB0390E080E00E94770495
:100D000087EE92E00E94EB0385E090E00E9477047A
:100D10008FEE92E00E94EB034AE060E070E0CB01CE
:100D20000E94A70386E192E00E949A0340E050E00F
:100D3000BA0180E00E9410041092770310927803A9
:100D40001092790310927A0380911C0490911D04F3
:100D50000E94970360E08AE00E94AE02C3E0D0E008
:100D60008AEF92E00E94EB031EBC00000DB407FE68
:100D7000FDCF8EB50E940204219791F761E08AE0D1
:100D80000E94AE0289E093E00E94ED0380E393E0CD
:100D90000E94EB038CE492E00E94EB0380917703C6
:100DA0000E94FB0385E592E00E94EB0380917803AB
:100DB0000E94FB0380E692E00E94EB03809179039E
:100DC0000E94FB038BE692E00E94EB0380917A0382
:100DD0000E94020464E670E080E090E00E945F03FD
:100DE00082E693E00E94ED0368EC70E080E090E022
:100DF0000E945F031093030200930202109301020A
:100E0000009300020E947D0239CFA1E21A2EAA1B94
:100E1000BB1BFD010DC0AA1FBB1FEE1FFF1FA217AA
:100E2000B307E407F50720F0A21BB30BE40BF50BA7
:100E3000661F771F881F991F1A9469F76095709530
:100E4000809590959B01AC01BD01CF010895EE0FF7
:100E5000FF1F881F8BBF0790F691E02D1994F8941F
:020E6000FFCFC2
:100E6200010001000000000010027A01A7015D02EA
:100E7200D801B601CA010D0A0044617461205752BB
:100E8200495445202D2D2D2D2D2D2D2D2D2D2D2D42
:100E92002D2D2D2D2D2D2D2D2D2D2D2D2D2D2D2D80
:100EA2002D2D2D2D2D2D2D2D2D200A0042797465ED
:100EB20020313A200009204279746520323A20001C
:100EC20009204279746520333A200009204279745E
:100ED2006520343A20000A0A5752495445203E3EC2
:100EE20020434D52454643544C0046494E205752EA
:100EF200495445000A0A52454144203E3E20434D92
:100F020052454643544C004461746120575249543F
:100F12004520646F2052454144202D2D2D2D2D2D2D
:100F22002D2D2D2D2D2D2D2D2D2D2D2D2D2D2D2DEF
:100F32002D2D2D2D2D2D2D2D2D2D2D2D2D2D2D20EC
:100F42000A0052573A20002020204164643A0020CF
:100F5200202044617461323A20005350492E747249
:100F6200616E736665723A20002D2D2D2D2D2D2D6B
:100F72002D2D2D2D204C65697475726120646F20B2
:100F8200524547202D2D2D2D2D2D2D2D2D2D2D0072
:100F9200446174612052454144202D2D2D2D2D2D6B
:100FA2002D2D2D2D2D2D2D2D2D2D2D2D2D2D2D2D6F
:100FB2002D2D2D2D2D2D2D2D2D2D2D2D2D2D2D206C
:0C0FC2000A0046494E2052454144000000
:00000001FF
